{
  "contractName": "KryptoBird",
  "abi": [
    {
      "inputs": [],
      "stateMutability": "nonpayable",
      "type": "constructor"
    },
    {
      "anonymous": false,
      "inputs": [
        {
          "indexed": true,
          "internalType": "address",
          "name": "_owner",
          "type": "address"
        },
        {
          "indexed": true,
          "internalType": "address",
          "name": "_approved",
          "type": "address"
        },
        {
          "indexed": true,
          "internalType": "uint256",
          "name": "_tokenId",
          "type": "uint256"
        }
      ],
      "name": "Approval",
      "type": "event"
    },
    {
      "anonymous": false,
      "inputs": [
        {
          "indexed": true,
          "internalType": "address",
          "name": "_from",
          "type": "address"
        },
        {
          "indexed": true,
          "internalType": "address",
          "name": "_to",
          "type": "address"
        },
        {
          "indexed": true,
          "internalType": "uint256",
          "name": "_tokenId",
          "type": "uint256"
        }
      ],
      "name": "Transfer",
      "type": "event"
    },
    {
      "inputs": [
        {
          "internalType": "address",
          "name": "_to",
          "type": "address"
        },
        {
          "internalType": "uint256",
          "name": "tokenId",
          "type": "uint256"
        }
      ],
      "name": "approve",
      "outputs": [],
      "stateMutability": "nonpayable",
      "type": "function"
    },
    {
      "inputs": [
        {
          "internalType": "address",
          "name": "_owner",
          "type": "address"
        }
      ],
      "name": "balanceOf",
      "outputs": [
        {
          "internalType": "uint256",
          "name": "",
          "type": "uint256"
        }
      ],
      "stateMutability": "view",
      "type": "function",
      "constant": true
    },
    {
      "inputs": [
        {
          "internalType": "uint256",
          "name": "",
          "type": "uint256"
        }
      ],
      "name": "kryptoBirdz",
      "outputs": [
        {
          "internalType": "string",
          "name": "",
          "type": "string"
        }
      ],
      "stateMutability": "view",
      "type": "function",
      "constant": true
    },
    {
      "inputs": [],
      "name": "name",
      "outputs": [
        {
          "internalType": "string",
          "name": "",
          "type": "string"
        }
      ],
      "stateMutability": "view",
      "type": "function",
      "constant": true
    },
    {
      "inputs": [
        {
          "internalType": "uint256",
          "name": "_tokenId",
          "type": "uint256"
        }
      ],
      "name": "ownerOf",
      "outputs": [
        {
          "internalType": "address",
          "name": "",
          "type": "address"
        }
      ],
      "stateMutability": "view",
      "type": "function",
      "constant": true
    },
    {
      "inputs": [
        {
          "internalType": "bytes4",
          "name": "interfaceID",
          "type": "bytes4"
        }
      ],
      "name": "supportsInterface",
      "outputs": [
        {
          "internalType": "bool",
          "name": "",
          "type": "bool"
        }
      ],
      "stateMutability": "view",
      "type": "function",
      "constant": true
    },
    {
      "inputs": [],
      "name": "symbol",
      "outputs": [
        {
          "internalType": "string",
          "name": "",
          "type": "string"
        }
      ],
      "stateMutability": "view",
      "type": "function",
      "constant": true
    },
    {
      "inputs": [
        {
          "internalType": "uint256",
          "name": "index",
          "type": "uint256"
        }
      ],
      "name": "tokenByIndex",
      "outputs": [
        {
          "internalType": "uint256",
          "name": "",
          "type": "uint256"
        }
      ],
      "stateMutability": "view",
      "type": "function",
      "constant": true
    },
    {
      "inputs": [
        {
          "internalType": "address",
          "name": "owner",
          "type": "address"
        },
        {
          "internalType": "uint256",
          "name": "index",
          "type": "uint256"
        }
      ],
      "name": "tokenOfOwnerByIndex",
      "outputs": [
        {
          "internalType": "uint256",
          "name": "",
          "type": "uint256"
        }
      ],
      "stateMutability": "view",
      "type": "function",
      "constant": true
    },
    {
      "inputs": [],
      "name": "totalSupply",
      "outputs": [
        {
          "internalType": "uint256",
          "name": "",
          "type": "uint256"
        }
      ],
      "stateMutability": "view",
      "type": "function",
      "constant": true
    },
    {
      "inputs": [
        {
          "internalType": "address",
          "name": "_from",
          "type": "address"
        },
        {
          "internalType": "address",
          "name": "_to",
          "type": "address"
        },
        {
          "internalType": "uint256",
          "name": "_tokenId",
          "type": "uint256"
        }
      ],
      "name": "transferFrom",
      "outputs": [],
      "stateMutability": "nonpayable",
      "type": "function"
    },
    {
      "inputs": [
        {
          "internalType": "string",
          "name": "_kryptoBird",
          "type": "string"
        }
      ],
      "name": "mint",
      "outputs": [],
      "stateMutability": "nonpayable",
      "type": "function"
    }
  ],
  "bytecode": "0x60806040523480156200001157600080fd5b506040518060400160405280600a81526020017f4b727970746f42697264000000000000000000000000000000000000000000008152506040518060400160405280600681526020017f4b424952445a00000000000000000000000000000000000000000000000000008152508181816000908162000091919062000431565b508060019081620000a3919062000431565b505050620000d77f01ffc9a7a5cef8baa21ed3c5c0d7e23accb804b619e9333b597f47a0d84076e2620000df60201b60201c565b50506200059b565b63ffffffff60e01b817bffffffffffffffffffffffffffffffffffffffffffffffffffffffff1916036200014a576040517f08c379a0000000000000000000000000000000000000000000000000000000008152600401620001419062000579565b60405180910390fd5b600160026000837bffffffffffffffffffffffffffffffffffffffffffffffffffffffff19167bffffffffffffffffffffffffffffffffffffffffffffffffffffffff1916815260200190815260200160002060006101000a81548160ff02191690831515021790555050565b600081519050919050565b7f4e487b7100000000000000000000000000000000000000000000000000000000600052604160045260246000fd5b7f4e487b7100000000000000000000000000000000000000000000000000000000600052602260045260246000fd5b600060028204905060018216806200023957607f821691505b6020821081036200024f576200024e620001f1565b5b50919050565b60008190508160005260206000209050919050565b60006020601f8301049050919050565b600082821b905092915050565b600060088302620002b97fffffffffffffffffffffffffffffffffffffffffffffffffffffffffffffffff826200027a565b620002c586836200027a565b95508019841693508086168417925050509392505050565b6000819050919050565b6000819050919050565b6000620003126200030c6200030684620002dd565b620002e7565b620002dd565b9050919050565b6000819050919050565b6200032e83620002f1565b620003466200033d8262000319565b84845462000287565b825550505050565b600090565b6200035d6200034e565b6200036a81848462000323565b505050565b5b8181101562000392576200038660008262000353565b60018101905062000370565b5050565b601f821115620003e157620003ab8162000255565b620003b6846200026a565b81016020851015620003c6578190505b620003de620003d5856200026a565b8301826200036f565b50505b505050565b600082821c905092915050565b60006200040660001984600802620003e6565b1980831691505092915050565b6000620004218383620003f3565b9150826002028217905092915050565b6200043c82620001b7565b67ffffffffffffffff811115620004585762000457620001c2565b5b62000464825462000220565b6200047182828562000396565b600060209050601f831160018114620004a9576000841562000494578287015190505b620004a0858262000413565b86555062000510565b601f198416620004b98662000255565b60005b82811015620004e357848901518255600182019150602085019450602081019050620004bc565b86831015620005035784890151620004ff601f891682620003f3565b8355505b6001600288020188555050505b505050505050565b600082825260208201905092915050565b7f496e76616c696420696e74657266616365207265717565737400000000000000600082015250565b60006200056160198362000518565b91506200056e8262000529565b602082019050919050565b60006020820190508181036000830152620005948162000552565b9050919050565b611ef880620005ab6000396000f3fe608060405234801561001057600080fd5b50600436106100b45760003560e01c80634f6ccce7116100715780634f6ccce71461018d5780636352211e146101bd57806370a08231146101ed57806393ab6e561461021d57806395d89b411461024d578063d85d3d271461026b576100b4565b806301ffc9a7146100b957806306fdde03146100e9578063095ea7b31461010757806318160ddd1461012357806323b872dd146101415780632f745c591461015d575b600080fd5b6100d360048036038101906100ce91906110b0565b610287565b6040516100e091906110f8565b60405180910390f35b6100f16102ef565b6040516100fe91906111ac565b60405180910390f35b610121600480360381019061011c9190611262565b610381565b005b61012b61051c565b60405161013891906112b1565b60405180910390f35b61015b600480360381019061015691906112cc565b610529565b005b61017760048036038101906101729190611262565b61054c565b60405161018491906112b1565b60405180910390f35b6101a760048036038101906101a2919061131f565b6105fc565b6040516101b491906112b1565b60405180910390f35b6101d760048036038101906101d2919061131f565b61066d565b6040516101e4919061135b565b60405180910390f35b61020760048036038101906102029190611376565b61071e565b60405161021491906112b1565b60405180910390f35b6102376004803603810190610232919061131f565b6107d5565b60405161024491906111ac565b60405180910390f35b610255610881565b60405161026291906111ac565b60405180910390f35b610285600480360381019061028091906114d8565b610913565b005b600060026000837bffffffffffffffffffffffffffffffffffffffffffffffffffffffff19167bffffffffffffffffffffffffffffffffffffffffffffffffffffffff1916815260200190815260200160002060009054906101000a900460ff169050919050565b6060600080546102fe90611550565b80601f016020809104026020016040519081016040528092919081815260200182805461032a90611550565b80156103775780601f1061034c57610100808354040283529160200191610377565b820191906000526020600020905b81548152906001019060200180831161035a57829003601f168201915b5050505050905090565b600061038c8261066d565b90508073ffffffffffffffffffffffffffffffffffffffff168373ffffffffffffffffffffffffffffffffffffffff16036103fc576040517f08c379a00000000000000000000000000000000000000000000000000000000081526004016103f3906115f3565b60405180910390fd5b8073ffffffffffffffffffffffffffffffffffffffff163373ffffffffffffffffffffffffffffffffffffffff161461046a576040517f08c379a00000000000000000000000000000000000000000000000000000000081526004016104619061165f565b60405180910390fd5b826005600084815260200190815260200160002060006101000a81548173ffffffffffffffffffffffffffffffffffffffff021916908373ffffffffffffffffffffffffffffffffffffffff160217905550818373ffffffffffffffffffffffffffffffffffffffff168273ffffffffffffffffffffffffffffffffffffffff167f8c5be1e5ebec7d5bd14f71427d1e84f3dd0314c0f7b2291e5b200ac8c7c3b92560405160405180910390a4505050565b6000600680549050905090565b6105333382610a0f565b61053c57600080fd5b610547838383610a9e565b505050565b60006105578361071e565b8210610598576040517f08c379a000000000000000000000000000000000000000000000000000000000815260040161058f906116cb565b60405180910390fd5b600860008473ffffffffffffffffffffffffffffffffffffffff1673ffffffffffffffffffffffffffffffffffffffff16815260200190815260200160002082815481106105e9576105e86116eb565b5b9060005260206000200154905092915050565b600061060661051c565b8210610647576040517f08c379a000000000000000000000000000000000000000000000000000000000815260040161063e90611766565b60405180910390fd5b6006828154811061065b5761065a6116eb565b5b90600052602060002001549050919050565b6000806003600084815260200190815260200160002060009054906101000a900473ffffffffffffffffffffffffffffffffffffffff169050600073ffffffffffffffffffffffffffffffffffffffff168173ffffffffffffffffffffffffffffffffffffffff1603610715576040517f08c379a000000000000000000000000000000000000000000000000000000000815260040161070c906117f8565b60405180910390fd5b80915050919050565b60008073ffffffffffffffffffffffffffffffffffffffff168273ffffffffffffffffffffffffffffffffffffffff160361078e576040517f08c379a0000000000000000000000000000000000000000000000000000000008152600401610785906117f8565b60405180910390fd5b600460008373ffffffffffffffffffffffffffffffffffffffff1673ffffffffffffffffffffffffffffffffffffffff168152602001908152602001600020549050919050565b600a81815481106107e557600080fd5b90600052602060002001600091509050805461080090611550565b80601f016020809104026020016040519081016040528092919081815260200182805461082c90611550565b80156108795780601f1061084e57610100808354040283529160200191610879565b820191906000526020600020905b81548152906001019060200180831161085c57829003601f168201915b505050505081565b60606001805461089090611550565b80601f01602080910402602001604051908101604052809291908181526020018280546108bc90611550565b80156109095780601f106108de57610100808354040283529160200191610909565b820191906000526020600020905b8154815290600101906020018083116108ec57829003601f168201915b5050505050905090565b600b816040516109239190611854565b908152602001604051809103902060009054906101000a900460ff161561097f576040517f08c379a0000000000000000000000000000000000000000000000000000000008152600401610976906118dd565b60405180910390fd5b600a819080600181540180825580915050600190039060005260206000200160009091909190915090816109b39190611aa9565b5060006001600a805490506109c89190611baa565b90506109d43382610ce3565b6001600b836040516109e69190611854565b908152602001604051809103902060006101000a81548160ff0219169083151502179055505050565b6000610a1a82610d04565b610a59576040517f08c379a0000000000000000000000000000000000000000000000000000000008152600401610a5090611c2a565b60405180910390fd5b6000610a648361066d565b90508073ffffffffffffffffffffffffffffffffffffffff168473ffffffffffffffffffffffffffffffffffffffff161491505092915050565b600073ffffffffffffffffffffffffffffffffffffffff168273ffffffffffffffffffffffffffffffffffffffff1603610b0d576040517f08c379a0000000000000000000000000000000000000000000000000000000008152600401610b0490611cbc565b60405180910390fd5b8273ffffffffffffffffffffffffffffffffffffffff16610b2d8261066d565b73ffffffffffffffffffffffffffffffffffffffff1614610b83576040517f08c379a0000000000000000000000000000000000000000000000000000000008152600401610b7a90611d4e565b60405180910390fd5b6001600460008573ffffffffffffffffffffffffffffffffffffffff1673ffffffffffffffffffffffffffffffffffffffff1681526020019081526020016000206000828254610bd39190611baa565b925050819055506001600460008473ffffffffffffffffffffffffffffffffffffffff1673ffffffffffffffffffffffffffffffffffffffff1681526020019081526020016000206000828254610c2a9190611d6e565b92505081905550816003600083815260200190815260200160002060006101000a81548173ffffffffffffffffffffffffffffffffffffffff021916908373ffffffffffffffffffffffffffffffffffffffff160217905550808273ffffffffffffffffffffffffffffffffffffffff168473ffffffffffffffffffffffffffffffffffffffff167fddf252ad1be2c89b69c2b068fc378daa952ba7f163c4a11628f55a4df523b3ef60405160405180910390a4505050565b610ced8282610d76565b610cf681610f37565b610d008282610f80565b5050565b6000806003600084815260200190815260200160002060009054906101000a900473ffffffffffffffffffffffffffffffffffffffff169050600073ffffffffffffffffffffffffffffffffffffffff168173ffffffffffffffffffffffffffffffffffffffff161415915050919050565b600073ffffffffffffffffffffffffffffffffffffffff168273ffffffffffffffffffffffffffffffffffffffff1603610de5576040517f08c379a0000000000000000000000000000000000000000000000000000000008152600401610ddc90611e36565b60405180910390fd5b610dee81610d04565b15610e2e576040517f08c379a0000000000000000000000000000000000000000000000000000000008152600401610e2590611ea2565b60405180910390fd5b816003600083815260200190815260200160002060006101000a81548173ffffffffffffffffffffffffffffffffffffffff021916908373ffffffffffffffffffffffffffffffffffffffff1602179055506001600460008473ffffffffffffffffffffffffffffffffffffffff1673ffffffffffffffffffffffffffffffffffffffff1681526020019081526020016000206000828254610ed09190611d6e565b92505081905550808273ffffffffffffffffffffffffffffffffffffffff16600073ffffffffffffffffffffffffffffffffffffffff167fddf252ad1be2c89b69c2b068fc378daa952ba7f163c4a11628f55a4df523b3ef60405160405180910390a45050565b6006805490506007600083815260200190815260200160002081905550600681908060018154018082558091505060019003906000526020600020016000909190919091505550565b600860008373ffffffffffffffffffffffffffffffffffffffff1673ffffffffffffffffffffffffffffffffffffffff168152602001908152602001600020805490506009600083815260200190815260200160002081905550600860008373ffffffffffffffffffffffffffffffffffffffff1673ffffffffffffffffffffffffffffffffffffffff1681526020019081526020016000208190806001815401808255809150506001900390600052602060002001600090919091909150555050565b6000604051905090565b600080fd5b600080fd5b60007fffffffff0000000000000000000000000000000000000000000000000000000082169050919050565b61108d81611058565b811461109857600080fd5b50565b6000813590506110aa81611084565b92915050565b6000602082840312156110c6576110c561104e565b5b60006110d48482850161109b565b91505092915050565b60008115159050919050565b6110f2816110dd565b82525050565b600060208201905061110d60008301846110e9565b92915050565b600081519050919050565b600082825260208201905092915050565b60005b8381101561114d578082015181840152602081019050611132565b8381111561115c576000848401525b50505050565b6000601f19601f8301169050919050565b600061117e82611113565b611188818561111e565b935061119881856020860161112f565b6111a181611162565b840191505092915050565b600060208201905081810360008301526111c68184611173565b905092915050565b600073ffffffffffffffffffffffffffffffffffffffff82169050919050565b60006111f9826111ce565b9050919050565b611209816111ee565b811461121457600080fd5b50565b60008135905061122681611200565b92915050565b6000819050919050565b61123f8161122c565b811461124a57600080fd5b50565b60008135905061125c81611236565b92915050565b600080604083850312156112795761127861104e565b5b600061128785828601611217565b92505060206112988582860161124d565b9150509250929050565b6112ab8161122c565b82525050565b60006020820190506112c660008301846112a2565b92915050565b6000806000606084860312156112e5576112e461104e565b5b60006112f386828701611217565b935050602061130486828701611217565b92505060406113158682870161124d565b9150509250925092565b6000602082840312156113355761133461104e565b5b60006113438482850161124d565b91505092915050565b611355816111ee565b82525050565b6000602082019050611370600083018461134c565b92915050565b60006020828403121561138c5761138b61104e565b5b600061139a84828501611217565b91505092915050565b600080fd5b600080fd5b7f4e487b7100000000000000000000000000000000000000000000000000000000600052604160045260246000fd5b6113e582611162565b810181811067ffffffffffffffff82111715611404576114036113ad565b5b80604052505050565b6000611417611044565b905061142382826113dc565b919050565b600067ffffffffffffffff821115611443576114426113ad565b5b61144c82611162565b9050602081019050919050565b82818337600083830152505050565b600061147b61147684611428565b61140d565b905082815260208101848484011115611497576114966113a8565b5b6114a2848285611459565b509392505050565b600082601f8301126114bf576114be6113a3565b5b81356114cf848260208601611468565b91505092915050565b6000602082840312156114ee576114ed61104e565b5b600082013567ffffffffffffffff81111561150c5761150b611053565b5b611518848285016114aa565b91505092915050565b7f4e487b7100000000000000000000000000000000000000000000000000000000600052602260045260246000fd5b6000600282049050600182168061156857607f821691505b60208210810361157b5761157a611521565b5b50919050565b7f4572726f72202d20617070726f76616c20746f2063757272656e74206f776e6560008201527f7200000000000000000000000000000000000000000000000000000000000000602082015250565b60006115dd60218361111e565b91506115e882611581565b604082019050919050565b6000602082019050818103600083015261160c816115d0565b9050919050565b7f43757272656e742063616c6c6572206973206e6f7420746865206f776e657200600082015250565b6000611649601f8361111e565b915061165482611613565b602082019050919050565b600060208201905081810360008301526116788161163c565b9050919050565b7f6f776e657220696e646578206973206f7574206f6620626f756e647321000000600082015250565b60006116b5601d8361111e565b91506116c08261167f565b602082019050919050565b600060208201905081810360008301526116e4816116a8565b9050919050565b7f4e487b7100000000000000000000000000000000000000000000000000000000600052603260045260246000fd5b7f676c6f62616c20696e646578206973206f7574206f6620626f756e6473210000600082015250565b6000611750601e8361111e565b915061175b8261171a565b602082019050919050565b6000602082019050818103600083015261177f81611743565b9050919050565b7f6f776e657220717565727920666f72206e6f6e2d6578697374656e7420746f6b60008201527f656e000000000000000000000000000000000000000000000000000000000000602082015250565b60006117e260228361111e565b91506117ed82611786565b604082019050919050565b60006020820190508181036000830152611811816117d5565b9050919050565b600081905092915050565b600061182e82611113565b6118388185611818565b935061184881856020860161112f565b80840191505092915050565b60006118608284611823565b915081905092915050565b7f4572726f72202d206b727970746f4269726420616c726561647920657869737460008201527f7300000000000000000000000000000000000000000000000000000000000000602082015250565b60006118c760218361111e565b91506118d28261186b565b604082019050919050565b600060208201905081810360008301526118f6816118ba565b9050919050565b60008190508160005260206000209050919050565b60006020601f8301049050919050565b600082821b905092915050565b60006008830261195f7fffffffffffffffffffffffffffffffffffffffffffffffffffffffffffffffff82611922565b6119698683611922565b95508019841693508086168417925050509392505050565b6000819050919050565b60006119a66119a161199c8461122c565b611981565b61122c565b9050919050565b6000819050919050565b6119c08361198b565b6119d46119cc826119ad565b84845461192f565b825550505050565b600090565b6119e96119dc565b6119f48184846119b7565b505050565b5b81811015611a1857611a0d6000826119e1565b6001810190506119fa565b5050565b601f821115611a5d57611a2e816118fd565b611a3784611912565b81016020851015611a46578190505b611a5a611a5285611912565b8301826119f9565b50505b505050565b600082821c905092915050565b6000611a8060001984600802611a62565b1980831691505092915050565b6000611a998383611a6f565b9150826002028217905092915050565b611ab282611113565b67ffffffffffffffff811115611acb57611aca6113ad565b5b611ad58254611550565b611ae0828285611a1c565b600060209050601f831160018114611b135760008415611b01578287015190505b611b0b8582611a8d565b865550611b73565b601f198416611b21866118fd565b60005b82811015611b4957848901518255600182019150602085019450602081019050611b24565b86831015611b665784890151611b62601f891682611a6f565b8355505b6001600288020188555050505b505050505050565b7f4e487b7100000000000000000000000000000000000000000000000000000000600052601160045260246000fd5b6000611bb58261122c565b9150611bc08361122c565b925082821015611bd357611bd2611b7b565b5b828203905092915050565b7f746f6b656e20646f6573206e6f74206578697473000000000000000000000000600082015250565b6000611c1460148361111e565b9150611c1f82611bde565b602082019050919050565b60006020820190508181036000830152611c4381611c07565b9050919050565b7f4572726f72202d20455243373231205472616e7366657220746f20746865207a60008201527f65726f2061646472657373000000000000000000000000000000000000000000602082015250565b6000611ca6602b8361111e565b9150611cb182611c4a565b604082019050919050565b60006020820190508181036000830152611cd581611c99565b9050919050565b7f54727920746f207472616e73666572206120746f6b656e20746865206164647260008201527f65737320646f6573206e6f74206f776e00000000000000000000000000000000602082015250565b6000611d3860308361111e565b9150611d4382611cdc565b604082019050919050565b60006020820190508181036000830152611d6781611d2b565b9050919050565b6000611d798261122c565b9150611d848361122c565b9250827fffffffffffffffffffffffffffffffffffffffffffffffffffffffffffffffff03821115611db957611db8611b7b565b5b828201905092915050565b7f4552433732313a206d696e74696e6720746f20746865207a65726f206164647260008201527f6573730000000000000000000000000000000000000000000000000000000000602082015250565b6000611e2060238361111e565b9150611e2b82611dc4565b604082019050919050565b60006020820190508181036000830152611e4f81611e13565b9050919050565b7f4552433732313a20746f6b656e20616c7265616479206d696e74656400000000600082015250565b6000611e8c601c8361111e565b9150611e9782611e56565b602082019050919050565b60006020820190508181036000830152611ebb81611e7f565b905091905056fea2646970667358221220fe01cc9774108d73eeea9a03567ad93859d5e8c11408bbc7c57698d0fa35e33d64736f6c634300080f0033",
  "immutableReferences": {},
  "source": "// SPDX-License-Identifier: MIT\r\npragma solidity ^0.8.0;\r\nimport './ERC721Connector.sol';\r\n\r\ncontract KryptoBird is ERC721Connector {\r\n\r\n    // array storing the NFT\r\n    string[] public kryptoBirdz;\r\n\r\n    mapping(string => bool) _kryptoBirdzExists;\r\n\r\n    function mint(string memory _kryptoBird) public {\r\n\r\n        require(!_kryptoBirdzExists[_kryptoBird], 'Error - kryptoBird already exists');\r\n        kryptoBirdz.push(_kryptoBird);\r\n        uint _id = kryptoBirdz.length - 1;\r\n\r\n        _mint(msg.sender, _id);\r\n\r\n        _kryptoBirdzExists[_kryptoBird] = true;\r\n    }\r\n\r\n    constructor() ERC721Connector('KryptoBird', 'KBIRDZ') {\r\n        \r\n    }\r\n}\r\n",
  "sourcePath": "/home/aqua01/Desktop/BLOCKCHAIN/nft_project/src/contracts/KryptoBirdz.sol",
  "compiler": {
    "name": "solc",
    "version": "0.8.15+commit.e14f2714.Emscripten.clang"
  },
  "schemaVersion": "3.4.7",
  "updatedAt": "2022-08-28T20:40:29.838Z",
  "networkType": "ethereum",
  "devdoc": {
    "kind": "dev",
    "methods": {
      "balanceOf(address)": {
        "details": "NFTs assigned to the zero address are considered invalid, and this  function throws for queries about the zero address.",
        "params": {
          "_owner": "An address for whom to query the balance"
        },
        "returns": {
          "_0": "The number of NFTs owned by `_owner`, possibly zero"
        }
      },
      "ownerOf(uint256)": {
        "details": "NFTs assigned to zero address are considered invalid, and queries  about them do throw.",
        "params": {
          "_tokenId": "The identifier for an NFT"
        },
        "returns": {
          "_0": "The address of the owner of the NFT"
        }
      },
      "supportsInterface(bytes4)": {
        "details": "Interface identification is specified in ERC-165. This function  uses less than 30,000 gas.",
        "params": {
          "interfaceID": "The interface identifier, as specified in ERC-165"
        },
        "returns": {
          "_0": "`true` if the contract implements `interfaceID` and  `interfaceID` is not 0xffffffff, `false` otherwise"
        }
      }
    },
    "version": 1
  },
  "userdoc": {
    "kind": "user",
    "methods": {
      "ownerOf(uint256)": {
        "notice": "Find the owner of an NFT"
      },
      "supportsInterface(bytes4)": {
        "notice": "Query if a contract implements an interface"
      }
    },
    "version": 1
  }
}